{
  "_format": "hh-sol-artifact-1",
  "contractName": "NFTONCHAIN",
  "sourceName": "contracts/NFTONCHAIN.sol",
  "abi": [
    {
      "inputs": [],
      "stateMutability": "nonpayable",
      "type": "constructor"
    },
    {
      "inputs": [
        {
          "internalType": "address",
          "name": "sender",
          "type": "address"
        },
        {
          "internalType": "uint256",
          "name": "tokenId",
          "type": "uint256"
        },
        {
          "internalType": "address",
          "name": "owner",
          "type": "address"
        }
      ],
      "name": "ERC721IncorrectOwner",
      "type": "error"
    },
    {
      "inputs": [
        {
          "internalType": "address",
          "name": "operator",
          "type": "address"
        },
        {
          "internalType": "uint256",
          "name": "tokenId",
          "type": "uint256"
        }
      ],
      "name": "ERC721InsufficientApproval",
      "type": "error"
    },
    {
      "inputs": [
        {
          "internalType": "address",
          "name": "approver",
          "type": "address"
        }
      ],
      "name": "ERC721InvalidApprover",
      "type": "error"
    },
    {
      "inputs": [
        {
          "internalType": "address",
          "name": "operator",
          "type": "address"
        }
      ],
      "name": "ERC721InvalidOperator",
      "type": "error"
    },
    {
      "inputs": [
        {
          "internalType": "address",
          "name": "owner",
          "type": "address"
        }
      ],
      "name": "ERC721InvalidOwner",
      "type": "error"
    },
    {
      "inputs": [
        {
          "internalType": "address",
          "name": "receiver",
          "type": "address"
        }
      ],
      "name": "ERC721InvalidReceiver",
      "type": "error"
    },
    {
      "inputs": [
        {
          "internalType": "address",
          "name": "sender",
          "type": "address"
        }
      ],
      "name": "ERC721InvalidSender",
      "type": "error"
    },
    {
      "inputs": [
        {
          "internalType": "uint256",
          "name": "tokenId",
          "type": "uint256"
        }
      ],
      "name": "ERC721NonexistentToken",
      "type": "error"
    },
    {
      "anonymous": false,
      "inputs": [
        {
          "indexed": true,
          "internalType": "address",
          "name": "owner",
          "type": "address"
        },
        {
          "indexed": true,
          "internalType": "address",
          "name": "approved",
          "type": "address"
        },
        {
          "indexed": true,
          "internalType": "uint256",
          "name": "tokenId",
          "type": "uint256"
        }
      ],
      "name": "Approval",
      "type": "event"
    },
    {
      "anonymous": false,
      "inputs": [
        {
          "indexed": true,
          "internalType": "address",
          "name": "owner",
          "type": "address"
        },
        {
          "indexed": true,
          "internalType": "address",
          "name": "operator",
          "type": "address"
        },
        {
          "indexed": false,
          "internalType": "bool",
          "name": "approved",
          "type": "bool"
        }
      ],
      "name": "ApprovalForAll",
      "type": "event"
    },
    {
      "anonymous": false,
      "inputs": [
        {
          "indexed": false,
          "internalType": "uint256",
          "name": "_fromTokenId",
          "type": "uint256"
        },
        {
          "indexed": false,
          "internalType": "uint256",
          "name": "_toTokenId",
          "type": "uint256"
        }
      ],
      "name": "BatchMetadataUpdate",
      "type": "event"
    },
    {
      "anonymous": false,
      "inputs": [
        {
          "indexed": false,
          "internalType": "uint256",
          "name": "_tokenId",
          "type": "uint256"
        }
      ],
      "name": "MetadataUpdate",
      "type": "event"
    },
    {
      "anonymous": false,
      "inputs": [
        {
          "indexed": true,
          "internalType": "address",
          "name": "from",
          "type": "address"
        },
        {
          "indexed": true,
          "internalType": "address",
          "name": "to",
          "type": "address"
        },
        {
          "indexed": true,
          "internalType": "uint256",
          "name": "tokenId",
          "type": "uint256"
        }
      ],
      "name": "Transfer",
      "type": "event"
    },
    {
      "inputs": [
        {
          "internalType": "address",
          "name": "to",
          "type": "address"
        },
        {
          "internalType": "uint256",
          "name": "tokenId",
          "type": "uint256"
        }
      ],
      "name": "approve",
      "outputs": [],
      "stateMutability": "nonpayable",
      "type": "function"
    },
    {
      "inputs": [
        {
          "internalType": "address",
          "name": "owner",
          "type": "address"
        }
      ],
      "name": "balanceOf",
      "outputs": [
        {
          "internalType": "uint256",
          "name": "",
          "type": "uint256"
        }
      ],
      "stateMutability": "view",
      "type": "function"
    },
    {
      "inputs": [
        {
          "internalType": "uint256",
          "name": "tokenId",
          "type": "uint256"
        }
      ],
      "name": "generateSVG",
      "outputs": [
        {
          "internalType": "string",
          "name": "",
          "type": "string"
        }
      ],
      "stateMutability": "view",
      "type": "function"
    },
    {
      "inputs": [
        {
          "internalType": "uint256",
          "name": "tokenId",
          "type": "uint256"
        }
      ],
      "name": "getApproved",
      "outputs": [
        {
          "internalType": "address",
          "name": "",
          "type": "address"
        }
      ],
      "stateMutability": "view",
      "type": "function"
    },
    {
      "inputs": [
        {
          "internalType": "uint256",
          "name": "tokenId",
          "type": "uint256"
        }
      ],
      "name": "getNumber",
      "outputs": [
        {
          "internalType": "string",
          "name": "",
          "type": "string"
        }
      ],
      "stateMutability": "view",
      "type": "function"
    },
    {
      "inputs": [
        {
          "internalType": "uint256",
          "name": "tokenId",
          "type": "uint256"
        }
      ],
      "name": "getTokenURI",
      "outputs": [
        {
          "internalType": "string",
          "name": "",
          "type": "string"
        }
      ],
      "stateMutability": "view",
      "type": "function"
    },
    {
      "inputs": [
        {
          "internalType": "uint256",
          "name": "tokenId",
          "type": "uint256"
        }
      ],
      "name": "incrementNumber",
      "outputs": [],
      "stateMutability": "nonpayable",
      "type": "function"
    },
    {
      "inputs": [
        {
          "internalType": "address",
          "name": "owner",
          "type": "address"
        },
        {
          "internalType": "address",
          "name": "operator",
          "type": "address"
        }
      ],
      "name": "isApprovedForAll",
      "outputs": [
        {
          "internalType": "bool",
          "name": "",
          "type": "bool"
        }
      ],
      "stateMutability": "view",
      "type": "function"
    },
    {
      "inputs": [],
      "name": "mint",
      "outputs": [],
      "stateMutability": "nonpayable",
      "type": "function"
    },
    {
      "inputs": [],
      "name": "name",
      "outputs": [
        {
          "internalType": "string",
          "name": "",
          "type": "string"
        }
      ],
      "stateMutability": "view",
      "type": "function"
    },
    {
      "inputs": [
        {
          "internalType": "uint256",
          "name": "tokenId",
          "type": "uint256"
        }
      ],
      "name": "ownerOf",
      "outputs": [
        {
          "internalType": "address",
          "name": "",
          "type": "address"
        }
      ],
      "stateMutability": "view",
      "type": "function"
    },
    {
      "inputs": [
        {
          "internalType": "address",
          "name": "from",
          "type": "address"
        },
        {
          "internalType": "address",
          "name": "to",
          "type": "address"
        },
        {
          "internalType": "uint256",
          "name": "tokenId",
          "type": "uint256"
        }
      ],
      "name": "safeTransferFrom",
      "outputs": [],
      "stateMutability": "nonpayable",
      "type": "function"
    },
    {
      "inputs": [
        {
          "internalType": "address",
          "name": "from",
          "type": "address"
        },
        {
          "internalType": "address",
          "name": "to",
          "type": "address"
        },
        {
          "internalType": "uint256",
          "name": "tokenId",
          "type": "uint256"
        },
        {
          "internalType": "bytes",
          "name": "data",
          "type": "bytes"
        }
      ],
      "name": "safeTransferFrom",
      "outputs": [],
      "stateMutability": "nonpayable",
      "type": "function"
    },
    {
      "inputs": [
        {
          "internalType": "address",
          "name": "operator",
          "type": "address"
        },
        {
          "internalType": "bool",
          "name": "approved",
          "type": "bool"
        }
      ],
      "name": "setApprovalForAll",
      "outputs": [],
      "stateMutability": "nonpayable",
      "type": "function"
    },
    {
      "inputs": [
        {
          "internalType": "bytes4",
          "name": "interfaceId",
          "type": "bytes4"
        }
      ],
      "name": "supportsInterface",
      "outputs": [
        {
          "internalType": "bool",
          "name": "",
          "type": "bool"
        }
      ],
      "stateMutability": "view",
      "type": "function"
    },
    {
      "inputs": [],
      "name": "symbol",
      "outputs": [
        {
          "internalType": "string",
          "name": "",
          "type": "string"
        }
      ],
      "stateMutability": "view",
      "type": "function"
    },
    {
      "inputs": [
        {
          "internalType": "uint256",
          "name": "",
          "type": "uint256"
        }
      ],
      "name": "tokenIdToNumber",
      "outputs": [
        {
          "internalType": "uint256",
          "name": "",
          "type": "uint256"
        }
      ],
      "stateMutability": "view",
      "type": "function"
    },
    {
      "inputs": [
        {
          "internalType": "uint256",
          "name": "tokenId",
          "type": "uint256"
        }
      ],
      "name": "tokenURI",
      "outputs": [
        {
          "internalType": "string",
          "name": "",
          "type": "string"
        }
      ],
      "stateMutability": "view",
      "type": "function"
    },
    {
      "inputs": [
        {
          "internalType": "address",
          "name": "from",
          "type": "address"
        },
        {
          "internalType": "address",
          "name": "to",
          "type": "address"
        },
        {
          "internalType": "uint256",
          "name": "tokenId",
          "type": "uint256"
        }
      ],
      "name": "transferFrom",
      "outputs": [],
      "stateMutability": "nonpayable",
      "type": "function"
    }
  ],
  "bytecode": "0x608060405234801561001057600080fd5b506040518060400160405280600a81526020017f4e46544f4e434841494e000000000000000000000000000000000000000000008152506040518060400160405280600a81526020017f4e46544f4e434841494e00000000000000000000000000000000000000000000815250816000908161008c9190610335565b50806001908161009c9190610335565b50505033600860006101000a81548173ffffffffffffffffffffffffffffffffffffffff021916908373ffffffffffffffffffffffffffffffffffffffff160217905550610407565b600081519050919050565b7f4e487b7100000000000000000000000000000000000000000000000000000000600052604160045260246000fd5b7f4e487b7100000000000000000000000000000000000000000000000000000000600052602260045260246000fd5b6000600282049050600182168061016657607f821691505b6020821081036101795761017861011f565b5b50919050565b60008190508160005260206000209050919050565b60006020601f8301049050919050565b600082821b905092915050565b6000600883026101e17fffffffffffffffffffffffffffffffffffffffffffffffffffffffffffffffff826101a4565b6101eb86836101a4565b95508019841693508086168417925050509392505050565b6000819050919050565b6000819050919050565b600061023261022d61022884610203565b61020d565b610203565b9050919050565b6000819050919050565b61024c83610217565b61026061025882610239565b8484546101b1565b825550505050565b600090565b610275610268565b610280818484610243565b505050565b5b818110156102a45761029960008261026d565b600181019050610286565b5050565b601f8211156102e9576102ba8161017f565b6102c384610194565b810160208510156102d2578190505b6102e66102de85610194565b830182610285565b50505b505050565b600082821c905092915050565b600061030c600019846008026102ee565b1980831691505092915050565b600061032583836102fb565b9150826002028217905092915050565b61033e826100e5565b67ffffffffffffffff811115610357576103566100f0565b5b610361825461014e565b61036c8282856102a8565b600060209050601f83116001811461039f576000841561038d578287015190505b6103978582610319565b8655506103ff565b601f1984166103ad8661017f565b60005b828110156103d5578489015182556001820191506020850194506020810190506103b0565b868310156103f257848901516103ee601f8916826102fb565b8355505b6001600288020188555050505b505050505050565b6131f6806104166000396000f3fe608060405234801561001057600080fd5b50600436106101215760003560e01c80636352211e116100ad578063a22cb46511610071578063a22cb4651461032c578063b88d4fde14610348578063c87b56dd14610364578063e985e9c514610394578063fc563658146103c457610121565b80636352211e146102625780636dcee4ca1461029257806370a08231146102c25780638151b2f5146102f257806395d89b411461030e57610121565b80631249c58b116100f45780631249c58b146101c057806323b872dd146101ca5780632545aecc146101e65780633bb3a24d1461021657806342842e0e1461024657610121565b806301ffc9a71461012657806306fdde0314610156578063081812fc14610174578063095ea7b3146101a4575b600080fd5b610140600480360381019061013b9190611da8565b6103f4565b60405161014d9190611df0565b60405180910390f35b61015e610455565b60405161016b9190611e9b565b60405180910390f35b61018e60048036038101906101899190611ef3565b6104e7565b60405161019b9190611f61565b60405180910390f35b6101be60048036038101906101b99190611fa8565b610503565b005b6101c8610519565b005b6101e460048036038101906101df9190611fe8565b610600565b005b61020060048036038101906101fb9190611ef3565b610702565b60405161020d919061204a565b60405180910390f35b610230600480360381019061022b9190611ef3565b61071a565b60405161023d9190611e9b565b60405180910390f35b610260600480360381019061025b9190611fe8565b610788565b005b61027c60048036038101906102779190611ef3565b6107a8565b6040516102899190611f61565b60405180910390f35b6102ac60048036038101906102a79190611ef3565b6107ba565b6040516102b99190611e9b565b60405180910390f35b6102dc60048036038101906102d79190612065565b610818565b6040516102e9919061204a565b60405180910390f35b61030c60048036038101906103079190611ef3565b6108d2565b005b610316610a11565b6040516103239190611e9b565b60405180910390f35b610346600480360381019061034191906120be565b610aa3565b005b610362600480360381019061035d9190612233565b610ab9565b005b61037e60048036038101906103799190611ef3565b610ad6565b60405161038b9190611e9b565b60405180910390f35b6103ae60048036038101906103a991906122b6565b610be9565b6040516103bb9190611df0565b60405180910390f35b6103de60048036038101906103d99190611ef3565b610c7d565b6040516103eb9190611e9b565b60405180910390f35b6000634906490660e01b7bffffffffffffffffffffffffffffffffffffffffffffffffffffffff1916827bffffffffffffffffffffffffffffffffffffffffffffffffffffffff1916148061044e575061044d82610ca8565b5b9050919050565b60606000805461046490612325565b80601f016020809104026020016040519081016040528092919081815260200182805461049090612325565b80156104dd5780601f106104b2576101008083540402835291602001916104dd565b820191906000526020600020905b8154815290600101906020018083116104c057829003601f168201915b5050505050905090565b60006104f282610d8a565b506104fc82610e12565b9050919050565b6105158282610510610e4f565b610e57565b5050565b600860009054906101000a900473ffffffffffffffffffffffffffffffffffffffff1673ffffffffffffffffffffffffffffffffffffffff163373ffffffffffffffffffffffffffffffffffffffff16146105a9576040517f08c379a00000000000000000000000000000000000000000000000000000000081526004016105a0906123c8565b60405180910390fd5b600760008154809291906105bc90612417565b919050555060006007549050600060096000838152602001908152602001600020819055506105eb3382610e69565b6105fd816105f88361071a565b610e87565b50565b600073ffffffffffffffffffffffffffffffffffffffff168273ffffffffffffffffffffffffffffffffffffffff16036106725760006040517f64a0ae920000000000000000000000000000000000000000000000000000000081526004016106699190611f61565b60405180910390fd5b60006106868383610681610e4f565b610ee3565b90508373ffffffffffffffffffffffffffffffffffffffff168173ffffffffffffffffffffffffffffffffffffffff16146106fc578382826040517f64283d7b0000000000000000000000000000000000000000000000000000000081526004016106f39392919061245f565b60405180910390fd5b50505050565b60096020528060005260406000206000915090505481565b60606000610727836107ba565b90506000610734846110fd565b8260405160200161074692919061270c565b6040516020818303038152906040529050610760816111cb565b60405160200161077091906127c9565b60405160208183030381529060405292505050919050565b6107a383838360405180602001604052806000815250610ab9565b505050565b60006107b382610d8a565b9050919050565b606060006107c783610c7d565b6040516020016107d79190612b63565b60405160208183030381529060405290506107f1816111cb565b6040516020016108019190612bdc565b604051602081830303815290604052915050919050565b60008073ffffffffffffffffffffffffffffffffffffffff168273ffffffffffffffffffffffffffffffffffffffff160361088b5760006040517f89c62b640000000000000000000000000000000000000000000000000000000081526004016108829190611f61565b60405180910390fd5b600360008373ffffffffffffffffffffffffffffffffffffffff1673ffffffffffffffffffffffffffffffffffffffff168152602001908152602001600020549050919050565b600073ffffffffffffffffffffffffffffffffffffffff166108f3826107a8565b73ffffffffffffffffffffffffffffffffffffffff1614610949576040517f08c379a000000000000000000000000000000000000000000000000000000000815260040161094090612c4a565b60405180910390fd5b3373ffffffffffffffffffffffffffffffffffffffff16610969826107a8565b73ffffffffffffffffffffffffffffffffffffffff16146109bf576040517f08c379a00000000000000000000000000000000000000000000000000000000081526004016109b690612cdc565b60405180910390fd5b6000600960008381526020019081526020016000205490506001816109e49190612cfc565b6009600084815260200190815260200160002081905550610a0d82610a088461071a565b610e87565b5050565b606060018054610a2090612325565b80601f0160208091040260200160405190810160405280929190818152602001828054610a4c90612325565b8015610a995780601f10610a6e57610100808354040283529160200191610a99565b820191906000526020600020905b815481529060010190602001808311610a7c57829003601f168201915b5050505050905090565b610ab5610aae610e4f565b838361133d565b5050565b610ac4848484610600565b610ad0848484846114ac565b50505050565b6060610ae182610d8a565b506000600660008481526020019081526020016000208054610b0290612325565b80601f0160208091040260200160405190810160405280929190818152602001828054610b2e90612325565b8015610b7b5780601f10610b5057610100808354040283529160200191610b7b565b820191906000526020600020905b815481529060010190602001808311610b5e57829003601f168201915b505050505090506000610b8c611663565b90506000815103610ba1578192505050610be4565b600082511115610bd6578082604051602001610bbe929190612d30565b60405160208183030381529060405292505050610be4565b610bdf8461167a565b925050505b919050565b6000600560008473ffffffffffffffffffffffffffffffffffffffff1673ffffffffffffffffffffffffffffffffffffffff16815260200190815260200160002060008373ffffffffffffffffffffffffffffffffffffffff1673ffffffffffffffffffffffffffffffffffffffff16815260200190815260200160002060009054906101000a900460ff16905092915050565b6060600060096000848152602001908152602001600020549050610ca0816110fd565b915050919050565b60007f80ac58cd000000000000000000000000000000000000000000000000000000007bffffffffffffffffffffffffffffffffffffffffffffffffffffffff1916827bffffffffffffffffffffffffffffffffffffffffffffffffffffffff19161480610d7357507f5b5e139f000000000000000000000000000000000000000000000000000000007bffffffffffffffffffffffffffffffffffffffffffffffffffffffff1916827bffffffffffffffffffffffffffffffffffffffffffffffffffffffff1916145b80610d835750610d82826116e3565b5b9050919050565b600080610d968361174d565b9050600073ffffffffffffffffffffffffffffffffffffffff168173ffffffffffffffffffffffffffffffffffffffff1603610e0957826040517f7e273289000000000000000000000000000000000000000000000000000000008152600401610e00919061204a565b60405180910390fd5b80915050919050565b60006004600083815260200190815260200160002060009054906101000a900473ffffffffffffffffffffffffffffffffffffffff169050919050565b600033905090565b610e64838383600161178a565b505050565b610e8382826040518060200160405280600081525061194f565b5050565b80600660008481526020019081526020016000209081610ea79190612f00565b507ff8e1a15aba9398e019f0b49df1a4fde98ee17ae345cb5f6b5e2c27f5033e8ce782604051610ed7919061204a565b60405180910390a15050565b600080610eef8461174d565b9050600073ffffffffffffffffffffffffffffffffffffffff168373ffffffffffffffffffffffffffffffffffffffff1614610f3157610f3081848661196b565b5b600073ffffffffffffffffffffffffffffffffffffffff168173ffffffffffffffffffffffffffffffffffffffff1614610fc257610f7360008560008061178a565b6001600360008373ffffffffffffffffffffffffffffffffffffffff1673ffffffffffffffffffffffffffffffffffffffff168152602001908152602001600020600082825403925050819055505b600073ffffffffffffffffffffffffffffffffffffffff168573ffffffffffffffffffffffffffffffffffffffff1614611045576001600360008773ffffffffffffffffffffffffffffffffffffffff1673ffffffffffffffffffffffffffffffffffffffff168152602001908152602001600020600082825401925050819055505b846002600086815260200190815260200160002060006101000a81548173ffffffffffffffffffffffffffffffffffffffff021916908373ffffffffffffffffffffffffffffffffffffffff160217905550838573ffffffffffffffffffffffffffffffffffffffff168273ffffffffffffffffffffffffffffffffffffffff167fddf252ad1be2c89b69c2b068fc378daa952ba7f163c4a11628f55a4df523b3ef60405160405180910390a4809150509392505050565b60606000600161110c84611a2f565b01905060008167ffffffffffffffff81111561112b5761112a612108565b5b6040519080825280601f01601f19166020018201604052801561115d5781602001600182028036833780820191505090505b509050600082602001820190505b6001156111c0578080600190039150507f3031323334353637383961626364656600000000000000000000000000000000600a86061a8153600a85816111b4576111b3612fd2565b5b0494506000850361116b575b819350505050919050565b606060008251036111ed57604051806020016040528060008152509050611338565b6000604051806060016040528060408152602001613181604091399050600060036002855161121c9190612cfc565b6112269190613001565b60046112329190613032565b67ffffffffffffffff81111561124b5761124a612108565b5b6040519080825280601f01601f19166020018201604052801561127d5781602001600182028036833780820191505090505b50905060018201602082018586518701602081018051600082525b828410156112f3576003840193508351603f8160121c168701518653600186019550603f81600c1c168701518653600186019550603f8160061c168701518653600186019550603f8116870151865360018601955050611298565b80825260038a51066001811461131057600281146113235761132b565b603d6001870353603d600287035361132b565b603d60018703535b5050505050505080925050505b919050565b600073ffffffffffffffffffffffffffffffffffffffff168273ffffffffffffffffffffffffffffffffffffffff16036113ae57816040517f5b08ba180000000000000000000000000000000000000000000000000000000081526004016113a59190611f61565b60405180910390fd5b80600560008573ffffffffffffffffffffffffffffffffffffffff1673ffffffffffffffffffffffffffffffffffffffff16815260200190815260200160002060008473ffffffffffffffffffffffffffffffffffffffff1673ffffffffffffffffffffffffffffffffffffffff16815260200190815260200160002060006101000a81548160ff0219169083151502179055508173ffffffffffffffffffffffffffffffffffffffff168373ffffffffffffffffffffffffffffffffffffffff167f17307eab39ab6107e8899845ad3d59bd9653f200f220920489ca2b5937696c318360405161149f9190611df0565b60405180910390a3505050565b60008373ffffffffffffffffffffffffffffffffffffffff163b111561165d578273ffffffffffffffffffffffffffffffffffffffff1663150b7a026114f0610e4f565b8685856040518563ffffffff1660e01b815260040161151294939291906130c9565b6020604051808303816000875af192505050801561154e57506040513d601f19601f8201168201806040525081019061154b919061312a565b60015b6115d2573d806000811461157e576040519150601f19603f3d011682016040523d82523d6000602084013e611583565b606091505b5060008151036115ca57836040517f64a0ae920000000000000000000000000000000000000000000000000000000081526004016115c19190611f61565b60405180910390fd5b805181602001fd5b63150b7a0260e01b7bffffffffffffffffffffffffffffffffffffffffffffffffffffffff1916817bffffffffffffffffffffffffffffffffffffffffffffffffffffffff19161461165b57836040517f64a0ae920000000000000000000000000000000000000000000000000000000081526004016116529190611f61565b60405180910390fd5b505b50505050565b606060405180602001604052806000815250905090565b606061168582610d8a565b506000611690611663565b905060008151116116b057604051806020016040528060008152506116db565b806116ba846110fd565b6040516020016116cb929190612d30565b6040516020818303038152906040525b915050919050565b60007f01ffc9a7000000000000000000000000000000000000000000000000000000007bffffffffffffffffffffffffffffffffffffffffffffffffffffffff1916827bffffffffffffffffffffffffffffffffffffffffffffffffffffffff1916149050919050565b60006002600083815260200190815260200160002060009054906101000a900473ffffffffffffffffffffffffffffffffffffffff169050919050565b80806117c35750600073ffffffffffffffffffffffffffffffffffffffff168273ffffffffffffffffffffffffffffffffffffffff1614155b156118f75760006117d384610d8a565b9050600073ffffffffffffffffffffffffffffffffffffffff168373ffffffffffffffffffffffffffffffffffffffff161415801561183e57508273ffffffffffffffffffffffffffffffffffffffff168173ffffffffffffffffffffffffffffffffffffffff1614155b8015611851575061184f8184610be9565b155b1561189357826040517fa9fbf51f00000000000000000000000000000000000000000000000000000000815260040161188a9190611f61565b60405180910390fd5b81156118f557838573ffffffffffffffffffffffffffffffffffffffff168273ffffffffffffffffffffffffffffffffffffffff167f8c5be1e5ebec7d5bd14f71427d1e84f3dd0314c0f7b2291e5b200ac8c7c3b92560405160405180910390a45b505b836004600085815260200190815260200160002060006101000a81548173ffffffffffffffffffffffffffffffffffffffff021916908373ffffffffffffffffffffffffffffffffffffffff16021790555050505050565b6119598383611b82565b61196660008484846114ac565b505050565b611976838383611c7b565b611a2a57600073ffffffffffffffffffffffffffffffffffffffff168373ffffffffffffffffffffffffffffffffffffffff16036119eb57806040517f7e2732890000000000000000000000000000000000000000000000000000000081526004016119e2919061204a565b60405180910390fd5b81816040517f177e802f000000000000000000000000000000000000000000000000000000008152600401611a21929190613157565b60405180910390fd5b505050565b600080600090507a184f03e93ff9f4daa797ed6e38ed64bf6a1f0100000000000000008310611a8d577a184f03e93ff9f4daa797ed6e38ed64bf6a1f0100000000000000008381611a8357611a82612fd2565b5b0492506040810190505b6d04ee2d6d415b85acef81000000008310611aca576d04ee2d6d415b85acef81000000008381611ac057611abf612fd2565b5b0492506020810190505b662386f26fc100008310611af957662386f26fc100008381611aef57611aee612fd2565b5b0492506010810190505b6305f5e1008310611b22576305f5e1008381611b1857611b17612fd2565b5b0492506008810190505b6127108310611b47576127108381611b3d57611b3c612fd2565b5b0492506004810190505b60648310611b6a5760648381611b6057611b5f612fd2565b5b0492506002810190505b600a8310611b79576001810190505b80915050919050565b600073ffffffffffffffffffffffffffffffffffffffff168273ffffffffffffffffffffffffffffffffffffffff1603611bf45760006040517f64a0ae92000000000000000000000000000000000000000000000000000000008152600401611beb9190611f61565b60405180910390fd5b6000611c0283836000610ee3565b9050600073ffffffffffffffffffffffffffffffffffffffff168173ffffffffffffffffffffffffffffffffffffffff1614611c765760006040517f73c6ac6e000000000000000000000000000000000000000000000000000000008152600401611c6d9190611f61565b60405180910390fd5b505050565b60008073ffffffffffffffffffffffffffffffffffffffff168373ffffffffffffffffffffffffffffffffffffffff1614158015611d3357508273ffffffffffffffffffffffffffffffffffffffff168473ffffffffffffffffffffffffffffffffffffffff161480611cf45750611cf38484610be9565b5b80611d3257508273ffffffffffffffffffffffffffffffffffffffff16611d1a83610e12565b73ffffffffffffffffffffffffffffffffffffffff16145b5b90509392505050565b6000604051905090565b600080fd5b600080fd5b60007fffffffff0000000000000000000000000000000000000000000000000000000082169050919050565b611d8581611d50565b8114611d9057600080fd5b50565b600081359050611da281611d7c565b92915050565b600060208284031215611dbe57611dbd611d46565b5b6000611dcc84828501611d93565b91505092915050565b60008115159050919050565b611dea81611dd5565b82525050565b6000602082019050611e056000830184611de1565b92915050565b600081519050919050565b600082825260208201905092915050565b60005b83811015611e45578082015181840152602081019050611e2a565b60008484015250505050565b6000601f19601f8301169050919050565b6000611e6d82611e0b565b611e778185611e16565b9350611e87818560208601611e27565b611e9081611e51565b840191505092915050565b60006020820190508181036000830152611eb58184611e62565b905092915050565b6000819050919050565b611ed081611ebd565b8114611edb57600080fd5b50565b600081359050611eed81611ec7565b92915050565b600060208284031215611f0957611f08611d46565b5b6000611f1784828501611ede565b91505092915050565b600073ffffffffffffffffffffffffffffffffffffffff82169050919050565b6000611f4b82611f20565b9050919050565b611f5b81611f40565b82525050565b6000602082019050611f766000830184611f52565b92915050565b611f8581611f40565b8114611f9057600080fd5b50565b600081359050611fa281611f7c565b92915050565b60008060408385031215611fbf57611fbe611d46565b5b6000611fcd85828601611f93565b9250506020611fde85828601611ede565b9150509250929050565b60008060006060848603121561200157612000611d46565b5b600061200f86828701611f93565b935050602061202086828701611f93565b925050604061203186828701611ede565b9150509250925092565b61204481611ebd565b82525050565b600060208201905061205f600083018461203b565b92915050565b60006020828403121561207b5761207a611d46565b5b600061208984828501611f93565b91505092915050565b61209b81611dd5565b81146120a657600080fd5b50565b6000813590506120b881612092565b92915050565b600080604083850312156120d5576120d4611d46565b5b60006120e385828601611f93565b92505060206120f4858286016120a9565b9150509250929050565b600080fd5b600080fd5b7f4e487b7100000000000000000000000000000000000000000000000000000000600052604160045260246000fd5b61214082611e51565b810181811067ffffffffffffffff8211171561215f5761215e612108565b5b80604052505050565b6000612172611d3c565b905061217e8282612137565b919050565b600067ffffffffffffffff82111561219e5761219d612108565b5b6121a782611e51565b9050602081019050919050565b82818337600083830152505050565b60006121d66121d184612183565b612168565b9050828152602081018484840111156121f2576121f1612103565b5b6121fd8482856121b4565b509392505050565b600082601f83011261221a576122196120fe565b5b813561222a8482602086016121c3565b91505092915050565b6000806000806080858703121561224d5761224c611d46565b5b600061225b87828801611f93565b945050602061226c87828801611f93565b935050604061227d87828801611ede565b925050606085013567ffffffffffffffff81111561229e5761229d611d4b565b5b6122aa87828801612205565b91505092959194509250565b600080604083850312156122cd576122cc611d46565b5b60006122db85828601611f93565b92505060206122ec85828601611f93565b9150509250929050565b7f4e487b7100000000000000000000000000000000000000000000000000000000600052602260045260246000fd5b6000600282049050600182168061233d57607f821691505b6020821081036123505761234f6122f6565b5b50919050565b7f4f6e6c79206f776e65722063616e2063616c6c20746869732066756e6374696f60008201527f6e00000000000000000000000000000000000000000000000000000000000000602082015250565b60006123b2602183611e16565b91506123bd82612356565b604082019050919050565b600060208201905081810360008301526123e1816123a5565b9050919050565b7f4e487b7100000000000000000000000000000000000000000000000000000000600052601160045260246000fd5b600061242282611ebd565b91507fffffffffffffffffffffffffffffffffffffffffffffffffffffffffffffffff8203612454576124536123e8565b5b600182019050919050565b60006060820190506124746000830186611f52565b612481602083018561203b565b61248e6040830184611f52565b949350505050565b600081905092915050565b7f7b00000000000000000000000000000000000000000000000000000000000000600082015250565b60006124d7600183612496565b91506124e2826124a1565b600182019050919050565b7f226e616d65223a20224e46544f4e434841494e20230000000000000000000000600082015250565b6000612523601583612496565b915061252e826124ed565b601582019050919050565b600061254482611e0b565b61254e8185612496565b935061255e818560208601611e27565b80840191505092915050565b7f222c000000000000000000000000000000000000000000000000000000000000600082015250565b60006125a0600283612496565b91506125ab8261256a565b600282019050919050565b7f226465736372697074696f6e223a2022436f6c6c65637469626c6520494d472260008201527f2c00000000000000000000000000000000000000000000000000000000000000602082015250565b6000612612602183612496565b915061261d826125b6565b602182019050919050565b7f22696d616765223a202200000000000000000000000000000000000000000000600082015250565b600061265e600a83612496565b915061266982612628565b600a82019050919050565b7f2200000000000000000000000000000000000000000000000000000000000000600082015250565b60006126aa600183612496565b91506126b582612674565b600182019050919050565b7f7d00000000000000000000000000000000000000000000000000000000000000600082015250565b60006126f6600183612496565b9150612701826126c0565b600182019050919050565b6000612717826124ca565b915061272282612516565b915061272e8285612539565b915061273982612593565b915061274482612605565b915061274f82612651565b915061275b8284612539565b91506127668261269d565b9150612771826126e9565b91508190509392505050565b7f646174613a6170706c69636174696f6e2f6a736f6e3b6261736536342c000000600082015250565b60006127b3601d83612496565b91506127be8261277d565b601d82019050919050565b60006127d4826127a6565b91506127e08284612539565b915081905092915050565b7f3c73766720786d6c6e733d22687474703a2f2f7777772e77332e6f72672f323060008201527f30302f737667222076696577426f783d2230203020313032342031303234223e60208201527f3c7061746820643d224d3530372e39203939386c3138342e322d3533312e384860408201527f3332332e367a222066696c6c3d222345324239374622202f3e3c70617468206460608201527f3d224d3639352e38203332312e34682d35332e376332392e3520302035332e3760808201527f2d32342e322035332e372d35332e37533637312e3620323134203634322e312060a08201527f3231346334372e312d36392e322d37322e382d3139322e332d37322e382d313960c08201527f322e33732d372e342037302d36312e342039322e31632d33392e342031362e3160e08201527f2d35312e342037312e352d3535203130302e33682d37342e33632d32392e35206101008201527f302d35332e372032342e322d35332e372035332e377332342e322035332e37206101208201527f35332e372035332e37682d35362e34632d33392e3820302d37322e332033322e6101408201527f352d37322e332037322e337333322e352037322e332037322e332037322e33686101608201527f3337332e366333392e3820302037322e332d33322e352037322e332d37322e336101808201527f732d33322e352d37322e342d37322e332d37322e347a222066696c6c3d2223466101a08201527f323735393622202f3e3c7061746820643d224d3530372e39203635342e356c316101c08201527f34372e312d37302e316d2d3134372e31203136312e366c3130372e312d3531226101e08201527f207374726f6b653d222331433143314322207374726f6b652d77696474683d226102008201527f3230222066696c6c3d226e6f6e6522202f3e3c7465787420666f6e742d66616d6102208201527f696c793d22417269616c2220666f6e742d73697a653d223130302220793d22356102408201527f35302220783d22343735222066696c6c3d2223314331433143223e000000000061026082015250565b6000612b0061027b83612496565b9150612b0b826127eb565b61027b82019050919050565b7f3c2f746578743e3c2f7376673e00000000000000000000000000000000000000600082015250565b6000612b4d600d83612496565b9150612b5882612b17565b600d82019050919050565b6000612b6e82612af2565b9150612b7a8284612539565b9150612b8582612b40565b915081905092915050565b7f646174613a696d6167652f7376672b786d6c3b6261736536342c000000000000600082015250565b6000612bc6601a83612496565b9150612bd182612b90565b601a82019050919050565b6000612be782612bb9565b9150612bf38284612539565b915081905092915050565b7f506c656173652075736520616e206578697374696e6720746f6b656e00000000600082015250565b6000612c34601c83611e16565b9150612c3f82612bfe565b602082019050919050565b60006020820190508181036000830152612c6381612c27565b9050919050565b7f596f75206d757374206f776e207468697320746f6b656e20746f20696e63726560008201527f6d656e7420746865206e756d6265722100000000000000000000000000000000602082015250565b6000612cc6603083611e16565b9150612cd182612c6a565b604082019050919050565b60006020820190508181036000830152612cf581612cb9565b9050919050565b6000612d0782611ebd565b9150612d1283611ebd565b9250828201905080821115612d2a57612d296123e8565b5b92915050565b6000612d3c8285612539565b9150612d488284612539565b91508190509392505050565b60008190508160005260206000209050919050565b60006020601f8301049050919050565b600082821b905092915050565b600060088302612db67fffffffffffffffffffffffffffffffffffffffffffffffffffffffffffffffff82612d79565b612dc08683612d79565b95508019841693508086168417925050509392505050565b6000819050919050565b6000612dfd612df8612df384611ebd565b612dd8565b611ebd565b9050919050565b6000819050919050565b612e1783612de2565b612e2b612e2382612e04565b848454612d86565b825550505050565b600090565b612e40612e33565b612e4b818484612e0e565b505050565b5b81811015612e6f57612e64600082612e38565b600181019050612e51565b5050565b601f821115612eb457612e8581612d54565b612e8e84612d69565b81016020851015612e9d578190505b612eb1612ea985612d69565b830182612e50565b50505b505050565b600082821c905092915050565b6000612ed760001984600802612eb9565b1980831691505092915050565b6000612ef08383612ec6565b9150826002028217905092915050565b612f0982611e0b565b67ffffffffffffffff811115612f2257612f21612108565b5b612f2c8254612325565b612f37828285612e73565b600060209050601f831160018114612f6a5760008415612f58578287015190505b612f628582612ee4565b865550612fca565b601f198416612f7886612d54565b60005b82811015612fa057848901518255600182019150602085019450602081019050612f7b565b86831015612fbd5784890151612fb9601f891682612ec6565b8355505b6001600288020188555050505b505050505050565b7f4e487b7100000000000000000000000000000000000000000000000000000000600052601260045260246000fd5b600061300c82611ebd565b915061301783611ebd565b92508261302757613026612fd2565b5b828204905092915050565b600061303d82611ebd565b915061304883611ebd565b925082820261305681611ebd565b9150828204841483151761306d5761306c6123e8565b5b5092915050565b600081519050919050565b600082825260208201905092915050565b600061309b82613074565b6130a5818561307f565b93506130b5818560208601611e27565b6130be81611e51565b840191505092915050565b60006080820190506130de6000830187611f52565b6130eb6020830186611f52565b6130f8604083018561203b565b818103606083015261310a8184613090565b905095945050505050565b60008151905061312481611d7c565b92915050565b6000602082840312156131405761313f611d46565b5b600061314e84828501613115565b91505092915050565b600060408201905061316c6000830185611f52565b613179602083018461203b565b939250505056fe4142434445464748494a4b4c4d4e4f505152535455565758595a6162636465666768696a6b6c6d6e6f707172737475767778797a303132333435363738392b2fa2646970667358221220219e4447dac241cadaed302278558c4f56ae5d84a2be435ac259b6759a2d860c64736f6c634300081b0033",
  "linkReferences": {},
  "deployedLinkReferences": {}
}