{
  "_format": "hh-sol-artifact-1",
  "contractName": "NFTStaking",
  "sourceName": "contracts/NFTStaking.sol",
  "abi": [
    {
      "inputs": [
        {
          "internalType": "contract IERC721",
          "name": "_nftCollection",
          "type": "address"
        },
        {
          "internalType": "contract IERC20",
          "name": "_rewardsToken",
          "type": "address"
        }
      ],
      "stateMutability": "nonpayable",
      "type": "constructor"
    },
    {
      "inputs": [
        {
          "internalType": "address",
          "name": "owner",
          "type": "address"
        }
      ],
      "name": "OwnableInvalidOwner",
      "type": "error"
    },
    {
      "inputs": [
        {
          "internalType": "address",
          "name": "account",
          "type": "address"
        }
      ],
      "name": "OwnableUnauthorizedAccount",
      "type": "error"
    },
    {
      "anonymous": false,
      "inputs": [
        {
          "indexed": true,
          "internalType": "address",
          "name": "previousOwner",
          "type": "address"
        },
        {
          "indexed": true,
          "internalType": "address",
          "name": "newOwner",
          "type": "address"
        }
      ],
      "name": "OwnershipTransferred",
      "type": "event"
    },
    {
      "inputs": [],
      "name": "claimRewards",
      "outputs": [],
      "stateMutability": "nonpayable",
      "type": "function"
    },
    {
      "inputs": [
        {
          "internalType": "address",
          "name": "_user",
          "type": "address"
        },
        {
          "internalType": "uint256",
          "name": "_tokenId",
          "type": "uint256"
        }
      ],
      "name": "getTokenIndex",
      "outputs": [
        {
          "internalType": "uint256",
          "name": "",
          "type": "uint256"
        }
      ],
      "stateMutability": "view",
      "type": "function"
    },
    {
      "inputs": [
        {
          "internalType": "address",
          "name": "_user",
          "type": "address"
        },
        {
          "internalType": "uint256",
          "name": "_tokenId",
          "type": "uint256"
        }
      ],
      "name": "isStaked",
      "outputs": [
        {
          "internalType": "bool",
          "name": "",
          "type": "bool"
        }
      ],
      "stateMutability": "view",
      "type": "function"
    },
    {
      "inputs": [],
      "name": "nftCollection",
      "outputs": [
        {
          "internalType": "contract IERC721",
          "name": "",
          "type": "address"
        }
      ],
      "stateMutability": "view",
      "type": "function"
    },
    {
      "inputs": [],
      "name": "owner",
      "outputs": [
        {
          "internalType": "address",
          "name": "",
          "type": "address"
        }
      ],
      "stateMutability": "view",
      "type": "function"
    },
    {
      "inputs": [],
      "name": "renounceOwnership",
      "outputs": [],
      "stateMutability": "nonpayable",
      "type": "function"
    },
    {
      "inputs": [],
      "name": "rewardsToken",
      "outputs": [
        {
          "internalType": "contract IERC20",
          "name": "",
          "type": "address"
        }
      ],
      "stateMutability": "view",
      "type": "function"
    },
    {
      "inputs": [
        {
          "internalType": "uint256",
          "name": "_newValue",
          "type": "uint256"
        }
      ],
      "name": "setRewardsPerHour",
      "outputs": [],
      "stateMutability": "nonpayable",
      "type": "function"
    },
    {
      "inputs": [
        {
          "internalType": "uint256[]",
          "name": "_tokenIds",
          "type": "uint256[]"
        }
      ],
      "name": "stake",
      "outputs": [],
      "stateMutability": "nonpayable",
      "type": "function"
    },
    {
      "inputs": [
        {
          "internalType": "address",
          "name": "",
          "type": "address"
        }
      ],
      "name": "stakers",
      "outputs": [
        {
          "internalType": "uint256",
          "name": "lastUpdatedTime",
          "type": "uint256"
        },
        {
          "internalType": "uint256",
          "name": "unclaimedRewards",
          "type": "uint256"
        }
      ],
      "stateMutability": "view",
      "type": "function"
    },
    {
      "inputs": [
        {
          "internalType": "address",
          "name": "newOwner",
          "type": "address"
        }
      ],
      "name": "transferOwnership",
      "outputs": [],
      "stateMutability": "nonpayable",
      "type": "function"
    },
    {
      "inputs": [
        {
          "internalType": "uint256[]",
          "name": "_tokenIds",
          "type": "uint256[]"
        }
      ],
      "name": "withdraw",
      "outputs": [],
      "stateMutability": "nonpayable",
      "type": "function"
    }
  ],
  "bytecode": "0x60c0604052620186a060015534801561001757600080fd5b50604051611974380380611974833981810160405281019061003991906102a2565b33600073ffffffffffffffffffffffffffffffffffffffff168173ffffffffffffffffffffffffffffffffffffffff16036100ac5760006040517f1e4fbdf70000000000000000000000000000000000000000000000000000000081526004016100a391906102f1565b60405180910390fd5b6100bb8161012b60201b60201c565b508173ffffffffffffffffffffffffffffffffffffffff1660a08173ffffffffffffffffffffffffffffffffffffffff16815250508073ffffffffffffffffffffffffffffffffffffffff1660808173ffffffffffffffffffffffffffffffffffffffff1681525050505061030c565b60008060009054906101000a900473ffffffffffffffffffffffffffffffffffffffff169050816000806101000a81548173ffffffffffffffffffffffffffffffffffffffff021916908373ffffffffffffffffffffffffffffffffffffffff1602179055508173ffffffffffffffffffffffffffffffffffffffff168173ffffffffffffffffffffffffffffffffffffffff167f8be0079c531659141344cd1fd0a4f28419497f9722a3daafe3b4186f6b6457e060405160405180910390a35050565b600080fd5b600073ffffffffffffffffffffffffffffffffffffffff82169050919050565b600061021f826101f4565b9050919050565b600061023182610214565b9050919050565b61024181610226565b811461024c57600080fd5b50565b60008151905061025e81610238565b92915050565b600061026f82610214565b9050919050565b61027f81610264565b811461028a57600080fd5b50565b60008151905061029c81610276565b92915050565b600080604083850312156102b9576102b86101ef565b5b60006102c78582860161024f565b92505060206102d88582860161028d565b9150509250929050565b6102eb81610214565b82525050565b600060208201905061030660008301846102e2565b92915050565b60805160a05161162761034d600039600081816102f6015281816103e60152818161078d01526109ba0152600081816106480152610a7101526116276000f3fe608060405234801561001057600080fd5b50600436106100b45760003560e01c80638da5cb5b116100715780638da5cb5b146101675780639168ae7214610185578063983d95ce146101b6578063b5a5e509146101d2578063d1af0c7d146101ee578063f2fde38b1461020c576100b4565b80630fbf0a93146100b957806312c86a6d146100d5578063372500ab146101055780635451da1b1461010f5780636588103b1461013f578063715018a61461015d575b600080fd5b6100d360048036038101906100ce9190610de2565b610228565b005b6100ef60048036038101906100ea9190610ec3565b6104bb565b6040516100fc9190610f12565b60405180910390f35b61010d610591565b005b61012960048036038101906101249190610ec3565b6106e9565b6040516101369190610f48565b60405180910390f35b61014761078b565b6040516101549190610fc2565b60405180910390f35b6101656107af565b005b61016f6107c3565b60405161017c9190610fec565b60405180910390f35b61019f600480360381019061019a9190611007565b6107ec565b6040516101ad929190611034565b60405180910390f35b6101d060048036038101906101cb9190610de2565b610810565b005b6101ec60048036038101906101e7919061105d565b610a5d565b005b6101f6610a6f565b60405161020391906110ab565b60405180910390f35b61022660048036038101906102219190611007565b610a93565b005b6000600260003373ffffffffffffffffffffffffffffffffffffffff1673ffffffffffffffffffffffffffffffffffffffff1681526020019081526020016000209050600083839050116102b1576040517f08c379a00000000000000000000000000000000000000000000000000000000081526004016102a890611123565b60405180910390fd5b60005b838390508110156104ac5760008484838181106102d4576102d3611143565b5b9050602002013590503373ffffffffffffffffffffffffffffffffffffffff167f000000000000000000000000000000000000000000000000000000000000000073ffffffffffffffffffffffffffffffffffffffff16636352211e836040518263ffffffff1660e01b815260040161034d9190610f12565b602060405180830381865afa15801561036a573d6000803e3d6000fd5b505050506040513d601f19601f8201168201806040525081019061038e9190611187565b73ffffffffffffffffffffffffffffffffffffffff16146103e4576040517f08c379a00000000000000000000000000000000000000000000000000000000081526004016103db90611200565b60405180910390fd5b7f000000000000000000000000000000000000000000000000000000000000000073ffffffffffffffffffffffffffffffffffffffff166323b872dd3330846040518463ffffffff1660e01b815260040161044193929190611220565b600060405180830381600087803b15801561045b57600080fd5b505af115801561046f573d6000803e3d6000fd5b50505050826000018190806001815401808255809150506001900390600052602060002001600090919091909150555080806001019150506102b4565b506104b633610b19565b505050565b600080600260008573ffffffffffffffffffffffffffffffffffffffff1673ffffffffffffffffffffffffffffffffffffffff168152602001908152602001600020905060005b816000018054905081101561054f578382600001828154811061052857610527611143565b5b90600052602060002001540361054257809250505061058b565b8080600101915050610502565b506040517f08c379a0000000000000000000000000000000000000000000000000000000008152600401610582906112a3565b60405180910390fd5b92915050565b6000600260003373ffffffffffffffffffffffffffffffffffffffff1673ffffffffffffffffffffffffffffffffffffffff1681526020019081526020016000209050600081600201546105e433610b92565b6105ee91906112f2565b905060008111610633576040517f08c379a000000000000000000000000000000000000000000000000000000000815260040161062a90611372565b60405180910390fd5b428260010181905550600082600201819055507f000000000000000000000000000000000000000000000000000000000000000073ffffffffffffffffffffffffffffffffffffffff1663a9059cbb33836040518363ffffffff1660e01b81526004016106a1929190611392565b6020604051808303816000875af11580156106c0573d6000803e3d6000fd5b505050506040513d601f19601f820116820180604052508101906106e491906113e7565b505050565b600080600260008573ffffffffffffffffffffffffffffffffffffffff1673ffffffffffffffffffffffffffffffffffffffff168152602001908152602001600020905060005b816000018054905081101561077e578382600001828154811061075657610755611143565b5b90600052602060002001540361077157600192505050610785565b8080600101915050610730565b5060009150505b92915050565b7f000000000000000000000000000000000000000000000000000000000000000081565b6107b7610c20565b6107c16000610ca7565b565b60008060009054906101000a900473ffffffffffffffffffffffffffffffffffffffff16905090565b60026020528060005260406000206000915090508060010154908060020154905082565b6000600260003373ffffffffffffffffffffffffffffffffffffffff1673ffffffffffffffffffffffffffffffffffffffff1681526020019081526020016000209050600081600001805490501161089d576040517f08c379a000000000000000000000000000000000000000000000000000000000815260040161089490611460565b60405180910390fd5b6108a633610b19565b60005b83839050811015610a575760008484838181106108c9576108c8611143565b5b9050602002013590506108dc33826106e9565b61091b576040517f08c379a0000000000000000000000000000000000000000000000000000000008152600401610912906114cc565b60405180910390fd5b600061092733836104bb565b905060006001856000018054905061093f91906114ec565b905080821461098e5784600001818154811061095e5761095d611143565b5b906000526020600020015485600001838154811061097f5761097e611143565b5b90600052602060002001819055505b846000018054806109a2576109a1611520565b5b600190038181906000526020600020016000905590557f000000000000000000000000000000000000000000000000000000000000000073ffffffffffffffffffffffffffffffffffffffff166323b872dd3033866040518463ffffffff1660e01b8152600401610a1593929190611220565b600060405180830381600087803b158015610a2f57600080fd5b505af1158015610a43573d6000803e3d6000fd5b5050505050505080806001019150506108a9565b50505050565b610a65610c20565b8060018190555050565b7f000000000000000000000000000000000000000000000000000000000000000081565b610a9b610c20565b600073ffffffffffffffffffffffffffffffffffffffff168173ffffffffffffffffffffffffffffffffffffffff1603610b0d5760006040517f1e4fbdf7000000000000000000000000000000000000000000000000000000008152600401610b049190610fec565b60405180910390fd5b610b1681610ca7565b50565b6000600260008373ffffffffffffffffffffffffffffffffffffffff1673ffffffffffffffffffffffffffffffffffffffff16815260200190815260200160002090506000610b6783610b92565b905080826002016000828254610b7d91906112f2565b92505081905550428260010181905550505050565b600080600260008473ffffffffffffffffffffffffffffffffffffffff1673ffffffffffffffffffffffffffffffffffffffff16815260200190815260200160002090506000816001015442610be891906114ec565b9050610e10826000018054905060015483610c03919061154f565b610c0d919061154f565b610c1791906115c0565b92505050919050565b610c28610d6b565b73ffffffffffffffffffffffffffffffffffffffff16610c466107c3565b73ffffffffffffffffffffffffffffffffffffffff1614610ca557610c69610d6b565b6040517f118cdaa7000000000000000000000000000000000000000000000000000000008152600401610c9c9190610fec565b60405180910390fd5b565b60008060009054906101000a900473ffffffffffffffffffffffffffffffffffffffff169050816000806101000a81548173ffffffffffffffffffffffffffffffffffffffff021916908373ffffffffffffffffffffffffffffffffffffffff1602179055508173ffffffffffffffffffffffffffffffffffffffff168173ffffffffffffffffffffffffffffffffffffffff167f8be0079c531659141344cd1fd0a4f28419497f9722a3daafe3b4186f6b6457e060405160405180910390a35050565b600033905090565b600080fd5b600080fd5b600080fd5b600080fd5b600080fd5b60008083601f840112610da257610da1610d7d565b5b8235905067ffffffffffffffff811115610dbf57610dbe610d82565b5b602083019150836020820283011115610ddb57610dda610d87565b5b9250929050565b60008060208385031215610df957610df8610d73565b5b600083013567ffffffffffffffff811115610e1757610e16610d78565b5b610e2385828601610d8c565b92509250509250929050565b600073ffffffffffffffffffffffffffffffffffffffff82169050919050565b6000610e5a82610e2f565b9050919050565b610e6a81610e4f565b8114610e7557600080fd5b50565b600081359050610e8781610e61565b92915050565b6000819050919050565b610ea081610e8d565b8114610eab57600080fd5b50565b600081359050610ebd81610e97565b92915050565b60008060408385031215610eda57610ed9610d73565b5b6000610ee885828601610e78565b9250506020610ef985828601610eae565b9150509250929050565b610f0c81610e8d565b82525050565b6000602082019050610f276000830184610f03565b92915050565b60008115159050919050565b610f4281610f2d565b82525050565b6000602082019050610f5d6000830184610f39565b92915050565b6000819050919050565b6000610f88610f83610f7e84610e2f565b610f63565b610e2f565b9050919050565b6000610f9a82610f6d565b9050919050565b6000610fac82610f8f565b9050919050565b610fbc81610fa1565b82525050565b6000602082019050610fd76000830184610fb3565b92915050565b610fe681610e4f565b82525050565b60006020820190506110016000830184610fdd565b92915050565b60006020828403121561101d5761101c610d73565b5b600061102b84828501610e78565b91505092915050565b60006040820190506110496000830185610f03565b6110566020830184610f03565b9392505050565b60006020828403121561107357611072610d73565b5b600061108184828501610eae565b91505092915050565b600061109582610f8f565b9050919050565b6110a58161108a565b82525050565b60006020820190506110c0600083018461109c565b92915050565b600082825260208201905092915050565b7f4e6f20746f6b656e7320746f207374616b650000000000000000000000000000600082015250565b600061110d6012836110c6565b9150611118826110d7565b602082019050919050565b6000602082019050818103600083015261113c81611100565b9050919050565b7f4e487b7100000000000000000000000000000000000000000000000000000000600052603260045260246000fd5b60008151905061118181610e61565b92915050565b60006020828403121561119d5761119c610d73565b5b60006111ab84828501611172565b91505092915050565b7f43616e2774207374616b6520746f6b656e7320796f7520646f6e2774206f776e600082015250565b60006111ea6020836110c6565b91506111f5826111b4565b602082019050919050565b60006020820190508181036000830152611219816111dd565b9050919050565b60006060820190506112356000830186610fdd565b6112426020830185610fdd565b61124f6040830184610f03565b949350505050565b7f546f6b656e206e6f7420666f756e640000000000000000000000000000000000600082015250565b600061128d600f836110c6565b915061129882611257565b602082019050919050565b600060208201905081810360008301526112bc81611280565b9050919050565b7f4e487b7100000000000000000000000000000000000000000000000000000000600052601160045260246000fd5b60006112fd82610e8d565b915061130883610e8d565b92508282019050808211156113205761131f6112c3565b5b92915050565b7f4e6f207265776172647320746f20636c61696d00000000000000000000000000600082015250565b600061135c6013836110c6565b915061136782611326565b602082019050919050565b6000602082019050818103600083015261138b8161134f565b9050919050565b60006040820190506113a76000830185610fdd565b6113b46020830184610f03565b9392505050565b6113c481610f2d565b81146113cf57600080fd5b50565b6000815190506113e1816113bb565b92915050565b6000602082840312156113fd576113fc610d73565b5b600061140b848285016113d2565b91505092915050565b7f4e6f20746f6b656e73207374616b656400000000000000000000000000000000600082015250565b600061144a6010836110c6565b915061145582611414565b602082019050919050565b600060208201905081810360008301526114798161143d565b9050919050565b7f4e6f7420796f7572207374616b656420746f6b656e0000000000000000000000600082015250565b60006114b66015836110c6565b91506114c182611480565b602082019050919050565b600060208201905081810360008301526114e5816114a9565b9050919050565b60006114f782610e8d565b915061150283610e8d565b925082820390508181111561151a576115196112c3565b5b92915050565b7f4e487b7100000000000000000000000000000000000000000000000000000000600052603160045260246000fd5b600061155a82610e8d565b915061156583610e8d565b925082820261157381610e8d565b9150828204841483151761158a576115896112c3565b5b5092915050565b7f4e487b7100000000000000000000000000000000000000000000000000000000600052601260045260246000fd5b60006115cb82610e8d565b91506115d683610e8d565b9250826115e6576115e5611591565b5b82820490509291505056fea2646970667358221220bbb5a892dfd829e908cadf46ff22d7b75bfcc7f15038e20858035bd46c8297fc64736f6c634300081b0033",
  "linkReferences": {},
  "deployedLinkReferences": {}
}